S01200004958575732325F464C442E737265632A
S3152025000000DA2720A10425205505252085D425205D
S3152025001051052520510525205105252000000000C4
S315202500200000000000000000000000005D052520DE
S315202500305105252000000000610525206505252080
S31520250040690525206D052520710525207505252081
S31520250050790525207D052520810525208505252031
S31520250060890525208D0525209105252095052520E1
S31520250070990525209D052520A1052520A505252091
S31520250080A905252051052520510525205105252061
S3152025009029D82520B1052520B5052520B9052520D2
S315202500A0BD052520C1052520C5052520C9052520D1
S315202500B0CD052520D1052520D5052520D905252081
S315202500C0DD052520E1052520E5052520E905252031
S315202500D0ED052520F1052520F5052520F9052520E1
S315202500E0FD0525200106252005062520090625208E
S315202500F00D0625201106252015062520190625203D
S315202501001D0625202106252051052520510525209A
S315202501105105252051052520510525205105252028
S315202501205105252051052520510525205105252018
S315202501305105252051052520510525205105252008
S3152025014051052520510525205105252051052520F8
S3152025015051052520510525205105252051052520E8
S3152025016051052520510525205105252051052520D8
S3152025017025062520290625202D062520310625205C
S3152025018035062520390625203D06252051052520FD
S3152025019051052520510525205105252051052520A8
S315202501A05105252051052520510525205105252098
S315202501B05105252051052520510525205105252088
S315202501C05105252041062520510525205105252087
S315202501D05105252051052520510525205105252068
S315202501E05105252045072620510525205105252061
S315202501F0510525205105252045062520490625205A
S315202502005105252051052520510525205105252037
S315202502105105252051052520510525205105252027
S315202502205105252051052520510525205105252017
S315202502305105252051052520510525205105252007
S3152025024051052520510525204D06252051062520F9
S3152025025051052520550625205906252051052520D9
S3152025026071DC25205D0625206106252065062520AD
S31520250270690625206D062520710625205105252070
S3152025028051052520510525205105252051052520B7
S3152025029051052520510525205105252051052520A7
S315202502A05105252051052520510525205105252097
S315202502B05105252051052520510525205105252087
S315202502C05105252051052520510525205105252077
S315202502D05105252051052520510525205105252067
S315202502E05105252051052520510525205105252057
S315202502F05105252051052520510525205105252047
S315202503005105252051052520510525205105252036
S315202503105105252051052520510525205105252026
S315202503205105252051052520510525205105252016
S315202503305105252051052520510525205105252006
S3152025034051052520510525205105252051052520F6
S3152025035051052520510525205105252051052520E6
S315202503605105252051052520750625207906252088
S3152025037051052520510525205105252051052520C6
S3152025038051052520510525207D0625208106252058
S315202503908506252089062520510525205105252038
S315202503A08D06252091062520510525205105252018
S315202503B05105252051052520510525205105252086
S315202503C05105252051052520510525205105252076
S315202503D05105252051052520510525205105252066
S315202503E05105252051052520510525205105252056
S315202503F0510525205105252051052520FFFFFFFFE5
S3152025040001F0FF01102A2BDB10F0070F08D010F87A
S31520250410013B013A8B422DD010F0070F42B3F6D17E
S31520250420F0B441EA012141EA014122F007047FF097
S3152025043000070023F0E80256083C85EA010586EAEE
S31520250440010685FA47F5A3FA87F586FA47F6A5FA2A
S3152025045087F68EB9EED1F0BC01F0FF0102F0070236
S3152025046032B110F8013B013A83EA010313B1F8D1E1
S315202504700020704701387047002D06BF35460338C2
S31520250480073815F0010F07D1013015F4807F02BFFB
S31520250490013015F4C03F0130F0BC0138704700BF4C
S315202504A072B61248124988604FF000024FF00003B9
S315202504B04FF000044FF000054FF000064FF00007DF
S315202504C0B846B946BA46BB46BC460A4885460A4872
S315202504D080470A4880470A48804762B64FF0000081
S315202504E04FF00001074A9047FEE70000000025202F
S315202504F000ED00E000DA272065F825202D18252097
S315202505009918252041D5252072B60A480A49016021
S315202505100A6882F30888094880470949094A0A4B07
S315202505209A42BEBF51F8040B42F8040BF8E762B68F
S315202505300648804708ED00E00000252065F825209F
S315202505402899262000002720740C272041D52520F0
S31520250550FFF7FEBF4F4800474F4800474F48004703
S315202505604F4800474F4800474F4800474F480047C8
S315202505704F4800474F4800474F4800474F480047B8
S315202505804F4800474F4800474F4800474F480047A8
S315202505904F4800474F4800474F4800474F48004798
S315202505A04F4800474F4800474F4800474F48004788
S315202505B04F4800474F4800474F4800474F48004778
S315202505C04F4800474F4800474F4800474F48004768
S315202505D04F4800474F4800474F4800474F48004758
S315202505E04F4800474F4800474F4800474F48004748
S315202505F04F4800474F4800474F4800474F48004738
S315202506004F4800474F4800474F4800474F48004727
S315202506104F4800474F4800474F4800474F48004717
S315202506204F4800474F4800474F4800474F48004707
S315202506304F4800474F4800474F4800474F480047F7
S315202506404F4800474F4800474F4800474F480047E7
S315202506504F4800474F4800474F4800474F480047D7
S315202506604F4800474F4800474F4800474F480047C7
S315202506704F4800474F4800474F4800474F480047B7
S315202506804F4800474F4800474F4800474F480047A7
S315202506904F4800475505252085D425205D0525204D
S315202506A0610525206505252051052520510525206F
S315202506B05105252051052520510525205105252083
S315202506C05105252051052520510525205105252073
S315202506D05105252051052520510525205105252063
S315202506E0510525205105252051052520B9F62520FA
S315202506F0D9F62520F9F6252019F7252039F725209D
S3152025070059F7252079F7252099F72520B9F725208A
S31520250710D9F72520F9F7252051052520510525200E
S315202507205105252051052520510525205105252012
S3152025073051052520C5F22520F9F225202DF3252042
S3152025074061F3252095F325205105252051052520C2
S3152025075051052520510525205105252051052520E2
S3152025076051052520510525205105252051052520D2
S3152025077051052520510525205105252051052520C2
S3152025078051052520510525205105252051052520B2
S31520250790510525200D6C2520256C25205105252044
S315202507A05105252051052520510525205105252092
S315202507B05105252051052520510525205105252082
S315202507C05105252051052520510525205105252072
S315202507D051052520002A01D101207047F0B41F4656
S315202507E0034603242340002B09D00424E31A017051
S315202507F001300824E141013A26D0013BF7D1042ACC
S315202508001ADB13D0002F11D00C460D460E46102A82
S3152025081002DB72C0103AFAE70C2A02DB32C00C3A08
S31520250820FAE7082A02DB12C0083AFAE7042A03DB8C
S3152025083001600430043AF9E7002A05D00170013019
S315202508400824E141013AF7D1F0BC00207047C04683
S3152025085053B94AB9002908BF00281CBF4FF0FF31DC
S315202508604FF0FF3000F06EB9ADF1080C6DE904CEDE
S3152025087000F006F8DDF804E0DDE9022304B0704730
S315202508802DE9F047089D04468C46002B40F08380B1
S315202508908A42174647D9B2FA82F242B1C2F12000DE
S315202508A024FA00F09140974040EA010C94404FEA03
S315202508B01748230CBCFBF8F61FFA87FE08FB16C142
S315202508C043EA014306FB0EF1994209D9FB1806F1A5
S315202508D0FF3080F01981994240F21681023E3B4431
S315202508E05B1AA4B2B3FBF8F008FB103344EA0344A1
S315202508F000FB0EFEA64509D93C1900F1FF3380F0F1
S315202509000581A64540F2028102383C4440EA06404C
S31520250910A4EB0E0400261DB1D4400023C5E90043CF
S315202509203146BDE8F08702B9FFDEB2FA82F2002A07
S3152025093050D1CB1B4FEA174E1FFA87F80126B3FB5A
S31520250940FEFC210C0EFB1C3341EA034108FB0CF36C
S315202509508B4207D979180CF1FF3002D28B4200F24F
S31520250960E9808446C91AA3B2B1FBFEF00EFB10110D
S3152025097043EA014408FB00F8A04507D93C1900F1B4
S31520250980FF3302D2A04500F2D9801846A4EB0804ED
S3152025099040EA0C40BFE78B4209D9002D00F0B180F3
S315202509A00026C5E9000130463146BDE8F087B3FA71
S315202509B083F6002E4AD18B4202D3824200F2B8809A
S315202509C0841A61EB030101208C46002DA8D0C5E9A8
S315202509D0004CA5E7C2F1200320FA03F6974001FA39
S315202509E002F04FEA174ED9403043030CB1FBFEF6F1
S315202509F01FFA87F80EFB161143EA014306FB08F179
S31520250A00994204FA02F409D9FB1806F1FF3C80F035
S31520250A108D80994240F28A80023E3B445B1A81B200
S31520250A20B3FBFEF00EFB103341EA034100FB08F32E
S31520250A308B4207D9791800F1FF3C73D28B4271D9A5
S31520250A4002383944CB1A40EA064678E7C6F1200C07
S31520250A5003FA06F422FA0CF31C4320FA0CF701FAC2
S31520250A6006F34FEA144E21FA0CF11F433B0CB1FB3A
S31520250A70FEF91FFA84F80EFB191143EA014109FBF9
S31520250A8008FA8A4502FA06F200FA06F308D9611809
S31520250A9009F1FF3048D28A4546D9A9F102092144D0
S31520250AA0A1EB0A01BFB2B1FBFEF00EFB101147EAFE
S31520250AB0014700FB08F8B84507D9E71900F1FF31AA
S31520250AC02ED2B8452CD90238274440EA0940A7EB2F
S31520250AD00807A0FB02894F45C64649461AD317D093
S31520250AE05DB1B3EB0E0267EB010707FA0CFCF2406A
S31520250AF04CEA0202F740C5E9002700263146BDE823
S31520250B00F0872E4628460BE70646E9E61846FDE6F3
S31520250B104345E5D2B8EB020E69EB04010138DFE740
S31520250B200846D2E760468DE78146B9E7664675E7EA
S31520250B3030464AE7ACF1020C394413E702383C44E7
S31520250B4024E700BF704700BF0238002138B5C4B25C
S31520250B502DED028B204614F089FC302105462046B2
S31520250B6014F084FC202108EE100A204614F07EFC81
S31520250B7007EE900AB8EE488B05F07F03B8EE675B43
S31520250B80012006EE103AC5F3426585EE087B00FA6C
S31520250B9005F5B8EEC66BBDEC028B37EE066B9FEDE1
S31520250BA0087B26EE076B07EE905AB8EEE77B86EE96
S31520250BB0075BFCEEC57B17EE900A38BDAFF30080A8
S31520250BC00000000060E376412DE9F04F8946016E4D
S31520250BD090463D4AC1F3C26185B0B8F1030F05465B
S31520250BE0515CB3FBF1F24FF00003029247D130A1BD
S31520250BF0D1E90001FFF72CFE002306460F46029A6F
S31520250C002DA1D1E90001FFF723FE0123044600216A
S31520250C104846029A8F4208BF4E45CDE900013ED26D
S31520250C2001332A494FF0FF370026A3FB01ABFF23CB
S31520250C3002930023504659460392FFF709FEDDE924
S31520250C400023994208BF9042039A06D3A0EB0903B5
S31520250C509F4282BF1F46044602960136B6F5807FFF
S31520250C6006D01A4B1AEB030A4BF1000B002FE0D1C5
S31520250C702846424602990EF059F9204615E010A13C
S31520250C80D1E90001FFF7E4FD002306460F46029A27
S31520250C903B210F48FFF7DCFD00230446B7E728460E
S31520250CA0424600210EF042F9304605B0BDE8F08FC8
S31520250CB0009435770000000000CA64D63B0000006A
S31520250CC000CA9A3B000000009592262000CA9A3B2E
S31520250CD00000CA9A2DE9F04F0D461F46CB0989B04B
S31520250CE049000446059201F01E01039341EAD51BCE
S31520250CF0002800F0FA8083684FEA8B1803EB8B13C4
S31520250D0093F8386016F0010600F0F18090F89630B9
S31520250D10A3B907F57F5307A83F33B3F5804F2CBFDB
S31520250D204FEA93394FF0010914F0FFFB94F894C04C
S31520250D30CC4507D20226079814F0FCFB304609B08D
S31520250D40BDE8F08F4FF00009D4F810A004EB8B01F5
S31520250D50CE46DAF80020B7F5804F02983B46019219
S31520250D60524628BF4FF480430497BEF1000F08BF93
S31520250D701046DDF804A00CF1FF3CFF1A02904FF037
S31520250D8001005FFA8CFC10604FF00000506005983A
S31520250D9070449060906800F5805020F47F6020F0A4
S31520250DA00F00D060D06800F580501061106900F5DD
S31520250DB080505061506900F580509061506863F3EA
S31520250DC01E405060D069D2F808B063F31E30CBF3AD
S31520250DD00B0BD06120F0004020F47F6020F00F001F
S31520250DE040EA0B00D06103D1506840F400405060A2
S31520250DF050684FF0800B9E446BF307005060486D7A
S31520250E0000283BD002604A65002FA2D1019A15F011
S31520250E100F0184F894C022611CD1039AD2B1A2680D
S31520250E2002EB080090F83800800713D5049888B17E
S31520250E30D08E98420ED952F80800C0F30A40B3FB4B
S31520250E40F0FC00FB1C332BB952F8083067F35D7391
S31520250E5042F80830ED08012305F010050D4303FA65
S31520250E6005F5B9F1000F21D16368D3F8B0212A42BF
S31520250E7008D00798002614F05DFB5FE7B1464A6146
S31520250E804A65C1E7D3F8402142F48042C3F8402180
S31520250E90D3F8B811D3F840215204F3D5D3F84021FD
S31520250EA00D4222F48042C3F84021E2D1A36898441A
S31520250EB0029BC8F808300023C8F80C30BFF34F8FA3
S31520250EC00C4A6368C3F8B051D3F8B8112942D0D15A
S31520250ED0013A03D1079814F02DFB2FE7D3F8BC113F
S31520250EE02942C6D1C3F8B051EEE7032626E70126C7
S31520250EF024E700BF809698002DE9FF4702EB41099C
S31520250F00002541EAC212064600EB8908DFF8B4A07F
S31520250F104FEA8919D8F81440D7B224F01F04CDE911
S31520250F20015514B904B0BDE8F087019B3BB9A368E8
S31520250F30A28B03EA0A03C2F30B02134301936368C8
S31520250F401A0638D4E2696168C2F31233029AC1F3CC
S31520250F500E415B1A1344D8F854200293D8F814303E
S31520250F6093422BD1C8F814500122C8F85450B3689F
S31520250F704B449A60DD6063681B0404D4D8F814308A
S31520250F8033F01F0309D101A930688DF80C708DF82F
S31520250F900D5012F014FBCDE90155336965602360A8
S31520250FA096F894303461013386F89430D8F8144075
S31520250FB024F01F04B5E74FF0FF33CCE71B68C8F8AC
S31520250FC01430D8E700F0FFFF2E4BF7B5861E009389
S31520250FD0A3F5804317460193F3B2012B4BD82A4C10
S31520250FE023781BB16378002B47D101230125DFF810
S31520250FF0A0C01A46E5549C24244D0CEB432C04FB17
S315202510000354C4F80CC0DFF88CC084F897000CEB89
S31520251010C323A36002AB03EB860656F8083CD3F818
S315202510204001636040F00200C3F84001D3F84041F7
S3152025103014F00204FAD19C26D3F824C156431CF079
S31520251040180F0CF01F0205EB060080F8952016D008
S31520251050D3F8A821A95122F00302C3F8A821D3F851
S31520251060A82142F00202C3F8A82111F0D3FC38604A
S31520251070204603B0F0BD0620FBE70320F9E7012033
S31520251080F7E700BF0000434064C5272028242720F2
S315202510900020272000102720E8B1104B984213D195
S315202510A00F4B00221A7043680020C3F84801D3F855
S315202510B0402122F00102C3F84021D3F8402142F0F5
S315202510C00202C3F8402170479C33984202BF044B45
S315202510D000225A70E7E70320704700BF28242720DF
S315202510E064C527202DE9FF474FEAD10801F00F03D4
S315202510F04C000F4608F01008054604F01E0448EA61
S3152025110003034FF0010844EAD11408FA03F800280E
S3152025111000F085806846002614F007FA4FF0FF3345
S315202511200FFA84FE05EB8404626922F01F02CDE9BD
S31520251130016313468BB919461E46DFF8E8909C466F
S315202511409AB901B10193AB6803EB8E1E0123CEF824
S3152025115008300023CEF80C3050E0D97F41F08001AD
S31520251160D9771B6823F01F03E4E792F91F0000288F
S3152025117042DA5068000627D43BB99168938B01EA59
S315202511800901C3F30B030B430121D4F814A0606D89
S3152025119082452BD1C4F814C0C4F854C05068000425
S315202511A028D4606930F01F0008BF01262869C2F8B7
S315202511B004C010602A6195F89420013285F8942080
S315202511C0626922F01F02BBE76868D0F8B4A14AEA13
S315202511D0080AC0F8B4A1D0F8B4A11AEA080FFAD1A2
S315202511E0D0F8B8A11AEA080FEFD1C5E7DAF800003A
S315202511F06061D3E70126D9E701B10193009814F060
S3152025120099F946B1002601A928688DF80C708DF824
S315202512100D6012F0D4F9304604B0BDE8F0870326D8
S31520251220F9E700BF00F0FFFF4B682DE9F0410133B8
S315202512308AB04FF0000805460E4617468DF80F80D2
S31520251240CDE9048803D105200AB0BDE8F081002A1E
S31520251250F9D0946806210DF10F0212F087FA317A1A
S31520251260002977D07368082BEDD13368002BEAD077
S315202512705A88D88862809A88E080A2805A786270B7
S315202512801B7813F0600F237016D10C2A60D8514B8A
S3152025129053F82260002E5BD005AB04AA214638469A
S315202512A0B04705AB019304AB0093002302462146A4
S315202512B0284612F00BF9C7E703F0200248B31F068C
S315202512C027D4BAB10121089006AA2846CDF81C8034
S315202512D08DF82410069412F048FC089B0593079B4D
S315202512E004930028DDD10146E388049A284612F086
S315202512F0DDF9A9E75E062BD50023089006AA13213A
S3152025130007930123284606948DF8243012F05CFC99
S31520251310E3E77AB100230121089006AA28460793F8
S315202513208DF82410069412F020FC089B0593079B24
S315202513300493B6E759060BD501230792089006AAEA
S31520251340132128468DF82430069412F03DFCECE72F
S315202513500520A6E79DF80F30032B09D16278214673
S315202513601C4B384653F8225005AB04AAA8476BE7F1
S315202513707368002B3FF467AFE288002A3FF463AFFA
S3152025138094F9000022780028FFF65DAF12F02000A0
S3152025139010D0326828468DF824100121079206AAF6
S315202513A00694089312F0E1FB05AB019304AB009359
S315202513B001237BE752060BD5326813218DF82400AD
S315202513C02846079206AA0694089312F0FDFBEBE71A
S315202513D00520E9E7085D262030B5104B87B0054660
S315202513E003AACDE903310E4B01A901930123ADF8BB
S315202513F0083012F05FF9044660B98DF8060003AA75
S3152025140001A9284612F056F9044618B18021284606
S3152025141012F06FF9204607B030BD00BF29122520CE
S31520251420400080002DE9F743074689469046002A45
S3152025143062D0354D01A814F078F82E681EB195F89E
S31520251440CD30BB4207D0D5F8D03001985BB195F881
S315202514509D31BB4252D10127019814F06BF83846AD
S3152025146003B0BDE8F083003E18BF0126D02404FB37
S31520251470065484F8CD7014F05DF80023C4F808903E
S315202514802246994684F8CD7084F8CC3084F8CF301E
S31520251490013382F81490102BC2E9039902F10C022C
S315202514A0F6D1BB1E012B0ED901A8062714F03DF82F
S315202514B0D02301985E43AB1945F8069083F8CD9045
S315202514C014F038F8CBE7114B38462246214663607F
S315202514D0D023C8F8004003FB06556B681B68984740
S315202514E0074628B1204612F0C2F8C8F80090B6E77C
S315202514F0022385F8CE30B2E70327B0E7002EB5D0F4
S31520251500022714F017F8AAE7602527203C5D262018
S315202515102DE9F043037F87B004461BB9012007B088
S31520251520BDE8F0834268926851799942F6D31268CC
S31520251530002AF3D003F100530C27013B02EBC30607
S3152025154012F8335000239D42E8D907FB03F2706831
S315202515508118825C032A49D10D7A00239D423BD8E6
S315202515600026CB786377002ED8D000250120DFF8FA
S3152025157080802F46DFF87C90A6603379AB42CED982
S315202515800623B1688DF808706B430135CA18107982
S315202515908DF80900CB5C20688DF80630DB0951884B
S315202515A06FF00103ADF8041001A9527818BFE36046
S315202515B08DF8072003AA19BF84F823702761636154
S315202515C084F824700ABFA761CDF80C90CDF80C803D
S315202515D0049412F06FF8D0E71A01486800EB031639
S315202515E0805CA27F9042BCD00133B7E70133AAE7BE
S315202515F0313826201138262070B50A4C0E46154638
S3152025160023685BB9214600F07DF830B923683BB1C4
S31520251610FF2366602077A3772C6070BD0220FCE728
S315202516200320FAE70027272037B5044601A80D46CB
S3152025163013F07BFF0C4A13689C42134608D0126987
S31520251640019894420DD013F075FF042003B030BDC8
S31520251650002203EB021301982B6013F06BFF002069
S31520251660F4E70122F5E700BF2827272013B50446EE
S3152025167001A813F05AFF104B1A6812B19A7BA24281
S315202516800AD01A6912B19A7FA24212D0019813F074
S3152025169051FF042002B010BD00220024110103EBC6
S315202516A0021201985C505460947313F043FF204630
S315202516B0F0E70122F1E700BF2827272037B5044682
S315202516C001A80D4613F031FF0D4B1A6812B19A7BEE
S315202516D0A2420AD01A6912B19A7FA2420ED0019847
S315202516E013F028FF042003B030BD002203EB02139C
S315202516F001982B6013F01EFF0020F4E70122F5E761
S315202517002827272037B5044601A80D4613F00DFFB7
S315202517100B4B1A6812B1997BA1420AD01A6912B1CC
S315202517209B7FA34205D0019813F004FF042003B024
S3152025173030BD01982A6013F0FDFE0020F7E700BF93
S31520251740282727202DE9F34705460C469046002ACB
S315202517505ED000295CD04B68002B59D0304F01A88C
S3152025176013F0E3FE3B6813B1BA7BAA4205D03A694A
S31520251770019852B1BA7FAA424CD10124019813F07F
S31520251780D9FE204602B0BDE8F087003B18BF0123CD
S31520251790244A07EB03164FEA031902EBC303B57355
S315202517A0B36013F0C7FE746032461F492846FFF7FB
S315202517B039FE044638B157F8090011F058FF284656
S315202517C0FFF754FFDDE782464FF00C0973685FFA71
S315202517D08AF11A7A8A4217D909FB01F719683944F9
S315202517E08B681B79012B03D10A1D2846FFF704FF99
S315202517F07368196839448B681B7913B90A1D2846DD
S3152025180098470AF1010AE1E73368C8F80030B8E7B6
S315202518100424B6E7002BBBD0022413F08BFEB0E7B9
S315202518202827272048272720C93B2620114B124A1F
S3152025183012499A60124B994209D1124A0021124B1C
S315202518409B1A73B91149124A521A72B97047114A0D
S31520251850D21A002AF1D013F8010B013A01F8010B0F
S31520251860F7E7013B02F8011BEBE7013A01F8013BBB
S31520251870EBE700BF00ED00E0000025200000272033
S3152025188028992620001027207CC9272000CA272012
S3152025189000CA27209CA52620114B4FF0FF32C3F8DE
S315202518A08020C3F88420C3F88820C3F88C20C3F869
S315202518B09020C3F89420C3F89820C3F89C20C3F819
S315202518C08021C3F88421C3F88821C3F88C21C3F845
S315202518D09021C3F89421C3F89821C3F89C217047F9
S315202518E000E100E00FB42DE9F04385B000240A2657
S315202518F030270CAB4FF0303C4FF0780E53F8042BA5
S315202519000093404B117829B9197005B0BDE8F043ED
S3152025191004B07047252902F101056FD1507800F0D2
S31520251920F708B8F1640F01D075282CD1009A111D1E
S3152025193000911168CDE90144CDF80B4099B90122D2
S315202519408DF8047001A8511E03F1FF38014408467D
S3152025195010F8019908F8019FA1EB00094A45F7D807
S3152025196013446A1CCEE70DF1040900220132B1FB8E
S31520251970F6F806FB1810303009F8010B08464146C3
S315202519800928F3D8DEE7782821D1009A01A8111D48
S3152025199000911168CDE901CC79B91A4603F10900E0
S315202519A00DF10B011F7002F801EF11F8018902F8DC
S315202519B0018F8242F9D10A33D3E701F00F020909B3
S315202519C0092A94BF3032573200F8012BE4E76328E1
S315202519D006D1009A111D1268009103F8012BC0E744
S315202519E073280BD1009A111D1268013A009112F81D
S315202519F0011F0029B5D003F8011BF8E7154603F882
S31520251A00011BAEE766C5272038B5084D044628466E
S31520251A1013F08BFD236801332360286813F08AFD94
S31520251A202368002BFCD1012038BD00BF582727204D
S31520251A3038B5064D0446284613F077FD2368013B25
S31520251A4023602868BDE8384013F074BD5827272021
S31520251A50014813F06ABD00BF58272720014B186877
S31520251A6013F068BD58272720013910B5082931D804
S31520251A70DFE801F007190525250525300500052070
S31520251A8010BD5368013B03330BD8134B1868836964
S31520251A90002B06DD90F81A34012B02D11830FFF7DA
S31520251AA0C7FF0020ECE753685A1E0332F9D80A4AA5
S31520251AB01068C3610123143000F8083CEFE7064C73
S31520251AC000212068143012F0D8F82068002118301B
S31520251AD012F0D3F80120D3E75C272720012938B532
S31520251AE00C460FD1084D4FF47E73286880F81A14BA
S31520251AF000F120020221806812F01CF82B6883F859
S31520251B001B4438BD0020FCE75C27272059B9074B05
S31520251B10022118684FF47E7380F81C2400F12002D8
S31520251B20806812F007B80020704700BF5C27272061
S31520251B30014B1860002070475C272720024B186030
S31520251B4000238360184670475C272720087A20B90A
S31520251B50034B0B604C234B6070470520704700BF15
S31520251B606F0B2720024B00200B6012234B607047FA
S31520251B705D0B2720087A20B9034B0B6029234B6060
S31520251B8070470520704700BF340B2720887A0E4BD7
S31520251B9010B520B91A685B680A604B6010BD9B6832
S31520251BA00C891A8994420CD103280AD81A6800B2BE
S31520251BB05B6852F8202053F8203000200A604B60BD
S31520251BC0ECE70520EAE700BF440027200229174B2A
S31520251BD01748184930B516D10322F82483F8202032
S31520251BE0DC7783F8212083F8272083F8264083F87D
S31520251BF028204FF47E73438003814FF400734B8056
S31520251C000B81002030BD40220025012483F8205059
S31520251C10DA7783F8214083F8275083F8262083F81E
S31520251C202840428002814A800A81EAE7340B272010
S31520251C301C0B2720280B2720F8B5044608B9042095
S31520251C40F8BDC07800F0F003B02BF8D110F00F06C0
S31520251C50F5D123782F2B4FEA1315F0D860680BF092
S31520251C604BFC0028EBD0AB016068803300EBD3001A
S31520251C70DF080BF041FC0028E1D0084D20233A4609
S31520251C80616805F10C00AB6013F094FD637830464E
S31520251C902F6003F003036B60D2E700BF642727205C
S31520251CA0F7B50D460446A0B199B10B4F5822002110
S31520251CB007F12C06304613F08BFD38460095334622
S31520251CC07A6850F80C1B00F009F900B9266003B094
S31520251CD0F0BD0420FBE700BF642727202DE9F74F19
S31520251CE0044608F0C1FA05463C488A46DFF8F0B096
S31520251CF008F0C8FA02460B46D4F8D41F880703D520
S31520251D00D4F8D41FC9070AD5DBF8081004EB0141FE
S31520251D1001F580314969C1F30901002946D1DBE95D
S31520251D2004324FF00008C3E90088DBF80C301A602E
S31520251D30BFF34F8FBFF36F8FDBF80830012204EBFB
S31520251D40034303F58033DA6108F08EFA05464046CB
S31520251D508A4608F097FA80468946DBF8083004EB50
S31520251D60034303F58033DB6BC3F309035BB908F023
S31520251D707BFA58EA0903F0D0461B61EB0A074F4543
S31520251D8008BF4645E9D3DBF81030DBF8142019685F
S31520251D9091421ED00120DBF8083004EB03440123B1
S31520251DA004F58034636303B0BDE8F08FCDE90023C5
S31520251DB008F05AFADDE9002352EA030C9CD0B0EB51
S31520251DC0050861EB0A09994508BF904594D3052056
S31520251DD0E1E75868003818BF0120DCE7A086010016
S31520251DE0E8272720120202F470622DE9F04742EAFD
S31520251DF00343089A00EB0144134304F58534C4F8BC
S31520251E00E43108F031FA054611488A4608F03AFAAF
S31520251E1080468946D4F8EC31C3F38133012B08D08B
S31520251E20D4F8EC3113F4704F14BF01200020BDE8FF
S31520251E30F08708F019FA58EA0903EBD0461B61EB1F
S31520251E400A074F4508BF4645E4D30520EFE700BFDF
S31520251E50A08601002DE9F3471F4E05460F469046DD
S31520251E60D6F8D84F4FF0000A06EB0049C4F30904EB
S31520251E700134052300222946174800935346FFF7A8
S31520251E80B1FFE8B909F58532D2F8EC31C3F38113D0
S31520251E90032B08D1D2F8EC3103F00F03BB4215D022
S31520251EA00AF1010A09E073B901233A462946304643
S31520251EB000935346FFF796FF10B95445D9D80120EC
S31520251EC002B0BDE8F087012BEAD1F6E75445F6D9CD
S31520251ED0C8F800A0F4E700BF000044402DE9F04FE4
S31520251EE087B0BC4F91461E46109A002388468246C7
S31520251EF01360B94ABB60B94BC7E90032002800F008
S31520251F006681002E00F0638121F00802102A02D076
S31520251F10202940F05C81B9F1030F00F2588148F25F
S31520251F2010021A61BFF36F8FBFF34F8FD3F8D82FC7
S31520251F300021AB4CC2F30332D4F8BC0101324B004D
S31520251F4020FA03F313F0030300F0AA81013191420D
S31520251F50F5D34FF0010B584607B0BDE8F08FD4F8DE
S31520251F6004B062460023BF681BF4002F07F1010B3E
S31520251F704FEA0747CDE9022302464FF00003CDE974
S31520251F80042337D063462A4604EB0B4BCBE90023A3
S31520251F900346E01900F58030C0E9082327440123AC
S31520251FA007F58037FB60FB627B6D43F001037B657C
S31520251FB0D4F8C036DF0730D40EF5201E894B0EF512
S31520251FC0927E8E4524D1D4F80036204643F480537C
S31520251FD0C4F80036FFF782FE83460028BBD1D4F805
S31520251FE0C036D80703D5D4F8C036590015D4D4F829
S31520251FF0C036AEE704EB0B4BDDE90223CBE9002304
S31520252000E319DDE904BC03F58033C3E908BCC5E73C
S3152025201053F8042B41F8042BD3E76E4C636823B978
S31520252020714B40F22D41714A37E15A69120A02F065
S315202520300B010B2903D002F00F020D2A89D1A9F114
S315202520400202012A63D95A6812F4005240F0908080
S31520252050914513D01A6891053FF57BAF5A6B9205AA
S315202520603FF577AF5A6809F0030942F400525A60C2
S31520252070DA6B22F0030242EA0902DA634246514626
S31520252080A06913F097FBA168276801228B1C57F8B6
S315202520903300A36A00F00F0003EB013300218240B1
S315202520A0E06907EB031303F585335960DA604BF2B4
S315202520B0080299605A6008F13002029213F088FBD3
S315202520C063694B49029A51F8040B58510435242D3E
S315202520D0F9D118691FFA88F1464D83F80A802840D8
S315202520E002920843996918612940A069586190B2DE
S315202520F0014338469961E169D961FFF7EFFD029AD7
S315202521008346002838D00023109A136023E7DA6BFC
S31520252110120798D41A68D7073FF51BAF5A6BD007F5
S315202521203FF517AFDA6C110717D4DA6B42F00402A4
S31520252130DA63BFF34F8FBFF36F8F5A6842F480520D
S315202521405A60DA6B1707FCD5DA6B42F01002DA6390
S31520252150DA6B10077FF5FDAE75E7274A5A66DA6CE6
S3152025216042F00802DA64DA6C12073FF5F2AEDCE7B4
S31520252170DA6B02F003026BE7812308F13805F0714B
S3152025218006F1080033704123B570F370662386F86F
S3152025219006803371552373712B0A73700326E169E3
S315202521A013F008FB109B1D605B4625680096284684
S315202521B0226AA168FFF716FE00287FF4CCAE00968A
S315202521C05B46A26A2846A168FFF70CFEC3E64FF0B8
S315202521D0040BC0E6E82727200000C940000044401C
S315202521E0000E4540785D2620CA782620DF782620D1
S315202521F0545D26200000FFFF66617341444F4FF052
S31520252200010E444CB8684449821C54F832C003EB6D
S31520252210003212010CF00F0C114422440EFA0CFC4C
S3152025222002F585324D60C2F80CC09560FF22BB624F
S315202522304A6007F12C021946FFF70CFE8346002833
S315202522407FF489AED4F8DC3F7A6AC3F3024E4FF485
S31520252250806303FA0EFE02FB0EFE0EF5201C0CF5FE
S3152025226000720CF580710CF11000C7F80CC079614D
S31520252270FA61D4F8DC2F3C68C2F30242386103FAAE
S3152025228002F2FB6A534303F52013BB61002C7FF42E
S3152025229066AE224B40F27B41214A22480FF0F8FCBC
S315202522A0B8684FF0010B1B4D821CDFF86CE055F802
S315202522B032C001EB003212010CF00F0C96442A4451
S315202522C00BFA0CFC02F58532CEF80430C2F80CC088
S315202522D09360FF223962CEF80420134A0293FFF732
S315202522E0B9FD029B834600287FF435AED5F8D82F35
S315202522F0D4F8BC11C2F3033201325D0021FA05F56B
S3152025230015F003053FF47AAF01339342F5D320E642
S31520252310E827272000004440000A4540CA78262081
S31520252320F6782620CF7826200C282720014B0360F7
S315202523300020704739232520436A5A895968828285
S31520252340DA68023A4260064A914206D11B7A012B67
S3152025235003D8044B03600020704742F275707047FE
S3152025236053544D50B1242520F7B500F11C060446BB
S31520252370416A102230461E4F0AF0A4F9B4F85A2095
S3152025238039681301E06D8D68102103F4706343EAE3
S315202523901223626AA847054648B9E36D1033E365DB
S315202523A0236E103B102B236604D9124B2360284617
S315202523B003B0F0BD0BB1104BF8E73B681B6933B969
S315202523C00E4B40F225210E4A0E480FF061FC984708
S315202523D005460028EBD101A930460AF097F9626E09
S315202523E0019B9A4201D1084BE0E742F27A75DEE756
S315202523F08C092720692325200D24252000792620B0
S315202524008A7926202B792620092625207FB5B0F8FE
S315202524105A200446184E1301316803F470638D68DB
S3152025242043EA1223426AD0E91701A8470546F8B997
S3152025243033681B6933B9114B4FF4E971104A11489A
S315202524400FF026FC9847054690B904F11C0010226A
S31520252450616A01900AF036F903A901980AF056F91E
S31520252460039B626E9A420ABF074B42F27A75236016
S31520252470284604B070BD00BF8C0927200079262068
S315202524807A7926202B79262009262520D0E901327E
S31520252490934208D99B1A82664360044B0360012325
S315202524A083600020704742F27870704709262520E0
S315202524B0416A4A6808B582610A684368033A9A429E
S315202524C082600BD20B892BB10648FFF70BFA42F215
S315202524D0777008BDBDE80840FFF7D8BF42F2767071
S315202524E0F7E700BF3779262010B504461C3012F0B1
S315202524F00FFF044A216E0020034B102998BF13464F
S31520252500236010BD0D24252069232520034B1B6818
S31520252510D0E91812DB68C06D184700BF8C09272023
S31520252520B0F85A301A0113F0010F02F4706242EA0C
S31520252530132214BF08230423042A05D100F160029F
S31520252540C16D024807F09ABC0420704700C0CA40D6
S31520252550B0F85A309A071BD41A0102F4706242EA5F
S315202525601322DB070ED5B2F5807F09D040F2011361
S315202525709A4203D0092A0BD100F0A8BF03F056BEF4
S3152025258002F034BD034B1B68D0E917019B69184718
S31520252590042070478C09272013B50446B0F85A0025
S315202525A0030103F4706343EA1020092804D1E06D62
S315202525B011F0ECFB02B010BD030A012B0FD101A9A6
S315202525C001F07AF80028F5D1064B1421E06D9A689A
S315202525D0019B01FB03231B691B699847EAE7042016
S315202525E0E8E700BF8C09272010B5054C702200216D
S315202525F0204613F0EDF8034B0020236010BD00BFC5
S315202526002C2827202D23252038B5436A044600F17A
S3152025261058050FCB85E80F0004F167025A2315F8D4
S31520252620011F95420B44FAD194F85820DBB29A42E1
S3152025263005D01E48FFF756F942F2797038BD94F831
S3152025264059300A2B2DD8DFE803F02F090E1306184B
S315202526502F1D0622270042F21270EFE72046BDE8FD
S31520252660384011F011BB2046BDE83840FFF73CBF66
S315202526702046BDE83840FFF749BF2046BDE838400B
S3152025268011F01EBB2046BDE83840FFF761BF204626
S31520252690BDE83840FFF780BF2046BDE83840FFF724
S315202526A03FBF42F27B70C9E70020C7E75379262032
S315202526B009480A4BC268436232B103699A4208D057
S315202526C00133036103681847836E002BFAD0013B3B
S315202526D083660020704700BF2C282720182827200E
S315202526E02DE9F041002407460E46104DA046B4425A
S315202526F001D1002009E02B69C3F110032344A3420D
S315202527000CD0A64203D142F27D70BDE8F0812A691C
S31520252710511C2961395D0134A954F0E7C5F810808B
S31520252720FFF7C6FF0028E2D0EFE700BF18282720AD
S315202527302DE9F041DFF8B080D8F800301B6933B990
S31520252740234B40F2BA41234A23480FF0A1FA984752
S31520252750044618BB214D95F85960042E21D1EF6DDD
S3152025276038460AF0C9FEB8B120460AF0B5FFB5F8B5
S315202527705A309B070ED52B6E63B1D8F804201168E5
S315202527808B4220D35268013293421CD883F3088882
S3152025279083F30988686EB84742F27E742046BDE8E1
S315202527A0F081082E11D102200AF096FFBFF34F8F14
S315202527B00B490C4BCA6802F4E0621343CB60BFF386
S315202527C04F8F00BFFDE73446E8E742F27B74E5E705
S315202527D0007926209B7926202B7926202C28272010
S315202527E000ED00E00400FA058C09272038B50B4BAF
S315202527F0DB681D6905F18004204611F094FA20B97D
S31520252800D5F88020064B9A4204D03422FF21204633
S3152025281012F0DEFF12F0A5FE002038BD8C092720F8
S315202528206B63666770B5244DFFF7E0FF234A0026C4
S31520252830EB681C69224B6672C4E9002345F20143E5
S315202528406381204B43F0010398471F4B012101301B
S31520252850C4E911131D4B207223671D4B63671D4B3E
S31520252860A3671D4BE3676B69E6601868D0B91B4BD8
S31520252870D3F80029E264D3F8103923656B685A68A2
S3152025288019680132A162521A596962639A69E1620D
S315202528900132521AA2639A6ADB6A226301339B1A92
S315202528A0E36370BD94F89020183302421EBFE26878
S315202528B01043E060D9E700BF8C0927200007024B8B
S315202528C000020150B05D2620DFEF150000002520EF
S315202528D09CA5262000002720FFD9272000C0CA40F6
S315202528E02DE9F0410F4688B01C4E74681CB904208A
S315202528F008B0BDE8F0813368834205D00836F4E771
S3152025290002AB43F825401FE01822002102A812F029
S315202529105FFF69460020A04700980028E8D10125B9
S3152025292004460290A846736801A92846019498472B
S315202529300028E5D1019B02AA42F825306B1E08FA0C
S3152025294003F2029B134302930135062DEBD1182260
S3152025295002A9384612F02EFF0020C9E7BC7526208D
S31520252960F8B51F462B4B16460138DA680D461469ED
S31520252970182849D8DFE800F00E0D484848481E4853
S315202529804820222948101846313848484848483B87
S315202529903D000C3404211AE0022901D92834F9E70F
S315202529A00A3504EB8504F5E7022901D93434F1E704
S315202529B00D35F6E74834EDE74434EBE7D869164C70
S315202529C043695B6998472060E4E77034102107B195
S315202529D03960E6B100203460F8BD0DF011FE0038CF
S315202529E00D4C18BF0120EEE74C340821EFE70834BB
S315202529F0D0E7B43428462146FFF772FF0028EBD1CD
S31520252A001821E4E7054CC5E742F63C00E4E73046C5
S31520252A10E2E700BF8C0927206C292720880027205C
S31520252A20074BD3F84824511C1A44C3F8481482F876
S31520252A300002D3F8482402F03F02C3F84824704701
S31520252A4070292720054B0A46DB69196910B44C687D
S31520252A500146184623465DF8044B18478C0927203E
S31520252A602DE9F04F87B004468A46154607F0FCFB2C
S31520252A70CDE90201BFF36F8F4FF47A70A2446843E4
S31520252A80254D07F0FFFB80468946DDE90223CDE962
S31520252A900423544503D1002007B0BDE8F08F07F065
S31520252AA0E3FBCDE90401DDE90401DDE90223DDE9C6
S31520252AB004BCCDE900235A466346DDE902BC6345BD
S31520252AC008BF5A4520D3009BC61A019B61EB0307F5
S31520252AD058EA090303D04F4508BF46451AD2D5F8EB
S31520252AE04C34D5F848249342D3D05A1C2B4493F8FA
S31520252AF00032C5F84C2404F8013BD5F84C3403F0B4
S31520252B003F03C5F84C34C4E7DDE90401DDE902239A
S31520252B10861ADBE70520BFE77029272008B5084B4D
S31520252B2093F850242AB9074BE521074A07480FF081
S31520252B30AFF8012283F85224002283F8502408BDB9
S31520252B4070292720AD792620017B2620C9792620A4
S31520252B505A2337B501228DF804300A4B05468DF8C0
S31520252B600500022101A883F85124FFF76BFF0446AF
S31520252B7020B1024629460448FEF7B4FE204603B076
S31520252B8030BD00BF70292720DA792620084B93F8F7
S31520252B9050242AB10022A12083F85024FFF7D8BF3C
S31520252BA093F8520418B1A32083F85224F6E77047E8
S31520252BB0702927202DE9F341164698460F4611B14F
S31520252BC0B2F5007F08D9314630480424FEF78AFE1F
S31520252BD0204602B0BDE8F081FFF7D8FF044600283D
S31520252BE0F6D12B4D95F851340BB185F851045A233E
S31520252BF085F84032B8F1000F30D1A42385F841322B
S31520252C00A5F8426226B132463946224812F0D2FD2F
S31520252C102049881F11F09AF8B11DA5F844021E48AF
S31520252C20FFF710FF04460028D2D11B4E01A811F02C
S31520252C3081F804460028CBD10A2201210DF1050071
S31520252C40FFF70EFF04460028C2D19DF8051001F195
S31520252C505F03DBB2022B03D91048B6E7A523CDE7C0
S31520252C60A3290DD0A229B3D1B5F842123046063173
S31520252C70FFF7E8FE38B99DF80530A22BD6D0A7E771
S31520252C8042F21274A4E70446A2E700BF0F7A262053
S31520252C9070292720B62B2720B02B2720397A2620C6
S31520252CA013B5044630B9124B40F23311114A124856
S31520252CB00EF0EEFF114B93F850242AB193F85124A8
S31520252CC012B193F852347BB94AF25A73022201A9DA
S31520252CD02046ADF8043023695B6898472369082286
S31520252CE007495B682046984742F2137002B010BD0B
S31520252CF0CE882620157B2620C979262070292720AF
S31520252D00245E26202DE9F04F154685B098460F4698
S31520252D1001B13AB904244348FEF7E4FD204605B01F
S31520252D20BDE8F08F0023404E136086F85134FFF717
S31520252D302DFF04460028F1D1B8F1000FDFF8F0B0B9
S31520252D40B046DFF8F09014BF4FF0A50A4FF0A40A3D
S31520252D504FF400720021404612F03AFD02A810F0E9
S31520252D60E9FF30BB0A2201210DF10900FFF778FE84
S31520252D700446F0B99DF80910A62914D1DBF81C00C4
S31520252D80FFF78EFFA8B9414602A810F0DFFFBDF850
S31520252D900C10024688423DD04846FEF7A3FDA220C8
S31520252DA0FFF7D6FED4E7514507D02048FEF79AFDF2
S31520252DB00120002304462B60B0E71422022101A816
S31520252DC0FFF74EFEBDF804300028F2D1B3F5007F7B
S31520252DD04FF014024FF0020101A828BF4FF40073CB
S31520252DE0ADF80A30FFF73CFEBDF80430ADF80C30BF
S31520252DF00028DED1BDF80A20002AC4D00146404647
S31520252E0012F0E6FCBDF80A100A2240464A43FFF78F
S31520252E1027FEB7E7012386F85034BDF80A303E60F1
S31520252E202B607BE7847A2620702927209C7A2620EA
S31520252E308C092720D87A2620064BD3F81834012B3F
S31520252E4005D0022B14BF00204FF0C04070474FF00D
S31520252E50405070478C0027202DE9F0410546ADF5D9
S31520252E60816D0C46144FDFF854800CB901201CE0E7
S31520252E70B4F5806F264628BF4FF48066FFF7DCFF22
S31520252E8002AA2B1A4146D7F81804009611F0BCFF42
S31520252E900023B10802AA994202D1A41B3544E4E7AE
S31520252EA052F8040B013004D000200DF5816DBDE8C4
S31520252EB0F0810133EFE700BF8C002720C42D272082
S31520252EC037B5094D04462B7853B1FFF7B5FF231A9D
S31520252ED00091D5F81804054911F096FF03B030BDA9
S31520252EE042F2DD70FAE700BF8C002720C42D27206B
S31520252EF02DE9F043154FADF20C4D05460C46A7F1AD
S31520252F001008DFF84C9024B901200DF20C4DBDE8B0
S31520252F10F083B4F5806F264628BF4FF48066FFF7E9
S31520252F208BFF02AA2B1A49460096D8F8180411F0C9
S31520252F306BFF3246394602A812F02EFC18B9A41B7F
S31520252F4035443744DFE70020DFE700BF9C002720F4
S31520252F50C42D272070B52B4C63780BB9002070BD66
S31520252F600023294D6370D5F8C021A368934206D046
S31520252F7004F11000D21AFF21184412F029FCD5F8A5
S31520252F80C0116068FFF768FF18B9607042F2DB70E0
S31520252F90E5E76268FFF750FFD4F818641B4B121A31
S31520252FA01949304611F0C7FC00236370A360002819
S31520252FB0D5D117494B69DB0314D5D5F8C00100288F
S31520252FC010DD636803F01F020244BFF34F8F1A44B6
S31520252FD0C1F85C322033D01A0028F9DCBFF34F8F95
S31520252FE0BFF36F8F0B4BDB681B695B6C012BB5D150
S31520252FF0D5F8C0116068FFF77BFF0028AED144F6CF
S315202530008A60ACE78C002720C42D27209C0027200A
S3152025301000ED00E08C0927202DE9F04706461746C6
S315202530200D4631B92B4B40F2AA212B4A2B480EF0BF
S315202530302FFE22B92A4B40F2AB21274AF6E7294C07
S315202530402378002B40D0DFF8A49004F1100863786C
S3152025305033BBD9F8C031013B334038D10122C4E9ED
S3152025306001636270A0683946D9F8C0214319934275
S315202530702CBFA2EB000AAA4640445246564412F0DB
S3152025308099FBA368D9F8C02157445344A5EB0A05D3
S315202530909342A3600FD9144B40F2EA210E4AC5E785
S315202530A0D4E901231344B342DCD0FFF753FF00288C
S315202530B0CDD0BDE8F08703D1FFF74CFF0028F8D106
S315202530C0002DC4D12846F4E742F2DD70F1E744F617
S315202530D08960EEE72F7B2620927B2620367B2620AD
S315202530E04C7B26208C002720537B2620C42D272069
S315202530F010B4044CE36B246D1B1B5DF8044B18445C
S31520253100FFF78ABF2C0A2720124B1B7873B5044656
S315202531100D460192DBB121F003060644B44206D1C1
S3152025312015F003010CD1FFF715FF02B070BD01AADA
S3152025313004212046FFF770FF0028F6D10434EDE759
S3152025314001AA2046FFF768FF0028ECD0EDE742F2DA
S31520253150DD70EAE78C00272010B4044CE36B246D40
S315202531601B1B5DF8044B1844FFF7CEBF2C0A2720DE
S315202531702DE9F04131B9284B4FF46571274A284866
S315202531800EF086FD274F3B78002B41D0DFF8A08017
S31520253190D8F8C461734200EA0305084444421C401A
S315202531A0FFF74AFE41462A1A2C44D7F818046442CA
S315202531B0234611F0E4FD074638BB1B4B5A6912F40A
S315202531C0803F1A4612D0002E10DD05F01F031E441F
S315202531D0BFF34F8F2B462E44C2F85C322033F11A8B
S315202531E00029F9DCBFF34F8FBFF36F8F0F4BDB68B9
S315202531F01B695B6C012B08D121462846FFF72CFE3F
S3152025320044F68A63002808BF1F463846BDE8F08164
S3152025321042F2DD77F9E700BF2F7B2620A87B2620E3
S31520253220367B26208C00272000ED00E08C092720E0
S31520253230C42D2720034AD36B126D9B1A1844FFF7FA
S3152025324097BF00BF2C0A272008B5002931D0102882
S315202532502FD8DFE800F00913162125292E2E2E2E0C
S315202532602E2E2E2E2E2E3000174B1A7842F2DD7357
S31520253270002A08BF18460860002008BDFFF7DCFD98
S31520253280F9E7124AD2E914300344906DD26D0344EE
S3152025329013449B0A0B60EFE70C4BD3F8C031F9E7B3
S315202532A00A4BD3F8C431F5E7084BD3F8D031002B98
S315202532B0F0D10420E1E7054AD2E914300344906D84
S315202532C0D26D03441344E5E78C002720C42D2720FF
S315202532D043884CF69072014623F00F039BB2934206
S315202532E02DE9F041ADF5007D10D10368C3F3130315
S315202532F05A1E012A4ED8704A0020D2F818148B421D
S3152025330002D0C2F818341070002436E0C37803F0B2
S31520253310F003C02B36D1684B02466849D3F81804EA
S3152025332007F07EFA044640BB634D00236349D5F852
S3152025333018042B7011F0EBFA0446F0B9D5F81804C9
S3152025334008F068FE69461020FFF77EFF0446A0B9DF
S315202533505B4A01215164FFF76FFDD063009F136DF2
S315202533607E1E9165013B3044B7F1806F94BFDB19F2
S3152025337003F1806310645365297020460DF5007D81
S31520253380BDE8F08103684F4A934205D14A4B1A7806
S31520253390984652B90424F0E74B4A9342FAD14FF482
S315202533A00072464812F006FABEE7444D284611F02B
S315202533B0F7FE0746002854D04FF400722946684662
S315202533C06E4612F0F7F92B6C2946D8F8180423F007
S315202533D004032B64D5F8C0315B08C5F8C031D5F870
S315202533E0C4315B08C5F8C431D5F8D0315B08C5F89A
S315202533F0D03111F08CFA002848D1FFF71DFD4FF466
S31520253400007100F58060FFF727FD002851D095F83B
S31520253410CA317BB16B46294900221E46487802329D
S31520253420023303F8020CB2F5007F11F8020B03F8DC
S31520253430010CF3D1FFF700FD32464FF4007100F55C
S315202534408060FFF7E9FD044668B14FF400734FF419
S3152025345080621A49D8F8180411F091FC002F8CD0D7
S3152025346012E02E46C9E7FFF775FD044640B1FFF762
S31520253470E3FCD5F8C41100F58060FFF779FEEDE76A
S31520253480002F3FF441AF2746AE4205D04FF40072B8
S3152025349031460A4812F08EF90849D8F8180411F051
S315202534A036FA044600287FF468AF002F3FF42CAF68
S315202534B063E742F2DB74D1E78C002720C42D272031
S315202534C02C0A27200F0000F04643464273B5134E9B
S315202534D0337803B3FFF7B0FC01A905461020FFF783
S315202534E0B3FE0446A0B90E49D6F8180411F085FA7C
S315202534F00C4B0446DB681B695B6C012B08D10199B3
S315202535002846FFF7A9FC44F68A63002808BF1C46EF
S31520253510204602B070BD42F2DD74F9E78C002720E3
S31520253520C42D27208C092720014B1878704700BFEA
S315202535308C00272010B5034C206810B18047002326
S31520253540236010BDC82F272010B5034C206810B145
S3152025355080470023236010BDC42F272038B5094C6A
S315202535606568286918B9A46823692BB938BD036805
S3152025357003B198471435F4E71B6803B198471434EB
S31520253580F2E700BF8C09272010B532B9124B40F23D
S315202535904711124A12480EF07BFB124B5B681360CB
S315202535A039B113682BB11C6834B95C6834B91C69E8
S315202535B024B942F2D8700BE084420AD85C6884424A
S315202535C007D30138014442F2D8708C4228BF002007
S315202535D010BD1433E3E700BFBE7B2620CC7B2620F7
S315202535E0C27B26208C09272070B533B9174B4FF47B
S315202535F0B771174A17480EF04BFB174CA4681C6069
S3152025360009B11C6814B942F2D8701CE0256845B961
S31520253610666836B9A66826B9E66816B92669002EDB
S31520253620F1D0954210D10A184FF00003D4E90201B2
S3152025363043F10003A0FB0101994208BF904242F2C3
S31520253640D87028BF002070BD1434D8E7BE7B26202D
S31520253650DB7B2620C27B26208C09272073B51646A0
S3152025366005461A460C4611B312F4706FC3F303238D
S3152025367005D0012B10D042F2D87002B070BD01AA18
S31520253680FFF782FF0028F8D1019B1B695B6832462C
S31520253690214628469847F0E701ABFFF7A5FF0028E6
S315202536A0EBD1019B034A1B6999691160EEE7084610
S315202536B0E3E700BFC42F272030B539B1084B0022B8
S315202536C09B681BB11C680CB11D690DB9042003E04C
S315202536D0844202D100200A6030BD01321433F0E73E
S315202536E08C092720114B0139DA68014470B51269F6
S315202536F05C68D2E91C3526689E4205D0A84205D8A5
S31520253700994203D301200EE0AB42F7D16469D2E971
S315202537101E32A34201D1934206D0904204D88B4231
S315202537208CBF0020012070BD0020FCE78C092720B6
S31520253730F7B5164605461A460C4600293CD012F4FE
S31520253740706FC3F3032304D0012B1ED042F2D87009
S3152025375019E0FFF7C7FF07460028F7D101AA21461A
S315202537602846FFF711FF70B9019B32462146284688
S315202537701B699B689847114B20B9019A12691269D2
S315202537801A6000E01F6003B0F0BD01ABFFF72CFFE8
S315202537900028F8D1019B2846094A1B6999699B6807
S315202537A01160324621469847044B18B9019A126969
S315202537B05269E5E70022E3E70846E4E7C82F2720F4
S315202537C0C42F27200246084612F4706FC2F303231E
S315202537D010B405D0012B0DD004205DF8044B70477D
S315202537E00E4B5B6819690029F6D0DC6894420FD008
S315202537F01433F7E7094B9B68143353F8041C002927
S31520253800EAD053F8144C14339442F6D10B6902E0CE
S315202538108B69002BE0D05DF8044B18478C092720AF
S31520253820034B002083F8100383F80903704700BF54
S31520253830CC2F27202DE9F04105460C461646DFF8E4
S315202538403C800D4F14B90120BDE8F08101232A467D
S315202538504146384604F0A6FE034650B9074A52F893
S31520253860041BB14205D10433B3F5007FF7D1013CC2
S31520253870E8E70020E8E700BFCC2F2720F0322720D5
S315202538802DE9F74F81460E46904632B9274B40F211
S315202538901A21274A27480EF0FBF9274D95F8083394
S315202538A0002B40D0C0F30804470ADFF890A0AB468A
S315202538B01EB9304603B0BDE8F08F95F8093333B1EC
S315202538C0D5F80C339F4202D35A1C974228D34FF062
S315202538D000033A465146584685F80933012304F014
S315202538E061FE0028E6D10123C5F80C7385F8093336
S315202538F033190AEB04014046B3F5007F8CBFC4F586
S3152025390000723246019211F055FF019A1444B61AD7
S315202539109044B4F5007F24BFA4F500740137C7E78A
S31520253920A9EB4324E4E742F2DD70C3E74C7B26204E
S31520253930017C2620F37B2620CC2F2720F03227201A
S3152025394010B5254C204604F0E9FD00283DD1D4F8B4
S315202539501433B3F5007F0CD094F8B012C3F500725A
S315202539601E4801294FF0FF31184418BF002111F0B8
S315202539702FFF94F8B02200230121D4F81803012A19
S315202539804FF0FF3284F8103318BF0022FFF752FF7D
S31520253990F0B10123D4F8182310490F4804F0ACFEC2
S315202539A090B90123D4F818230D490B4804F0FAFDC4
S315202539B050B94FF400720A49084811F0EDFE42F23B
S315202539C0DF73002818BF184610BD42F2E070FBE7CA
S315202539D042F2DB70F8E700BFCC2F2720F0342720D2
S315202539E0F03227202DE9F74F80460D46164632B967
S315202539F02F4B4FF415712F4A2F480EF049F92F4B8F
S31520253A0093F808239B46002A4ED0C0F30804470A7C
S31520253A10DFF8AC904FF0010A0DB9284611E09BF846
S31520253A2010331BB984B142F2DE700AE0DBF8183375
S31520253A309F4202D35A1C97422BD3FFF781FF00289A
S31520253A40F0D003B0BDE8F08FCBE9C5478BF810A39E
S31520253A502B19314609EB0400B3F5007F8CBFC4F53D
S31520253A6000722A46019211F0A5FE019ADBF814333D
S31520253A701444AD1A13441644B4F5007FCBF81433F9
S31520253A80CAD3FFF75DFF0028DBD1A4F500740137E3
S31520253A90C2E7A8EB4324DBF81433A342D8D0FFF79B
S31520253AA04FFF0028CDD1B7E742F2DD70C9E700BF29
S31520253AB04C7B26200E7C2620F37B2620CC2F2720E8
S31520253AC0F0342720034B93F8100308B1FFF738BFAE
S31520253AD0704700BFCC2F272070B5134E05460C46C0
S31520253AE096F80833BBB1304604F018FDB0B9C4B1F9
S31520253AF06A1ED6F8E002D6F8FC122244B5FBF0F56C
S31520253B00B2FBF0F23046B2FBF1F2B5FBF1F1BDE89E
S31520253B10704004F09FBE42F2DD7070BD42F2E07027
S31520253B20FBE72046F9E700BFCC2F2720104B93F83B
S31520253B300023072A19D8DFE802F0040909180C0FF3
S31520253B401215D3F8E432036000207047D3F8E83203
S31520253B50F9E7D3F8EC32F6E7D3F8F032F3E7D3F8E2
S31520253B60F432F0E7D3F8F832EDE70420704700BFAA
S31520253B70CC2F27202DE91748044601A8FFF7D6FF85
S31520253B8050B9074B019AD3F8E032A2FB03BC4FEA82
S31520253B909B2242EA8C52226003B0BDE8108800BFE2
S31520253BA0CC2F27202DE9F04186B0064609F0A4FC26
S31520253BB008B904241DE0F01D09F09EFC0028F8D044
S31520253BC0F37803F0F002B02A6FD1964D95F80823A5
S31520253BD02F46002AEDD0C3F3030803F00F03012B4C
S31520253BE0E7D88BB93046FEF727F8044628B185F85D
S31520253BF01C83204606B0BDE8F081B368C5F820337E
S31520253C00012385F81C33F4E795F81C33002BD0D0F7
S31520253C10337813F00F03CCD101A80193FFF7AAFF20
S31520253C2004460028E5D1019B03A902A8D5F8E06220
S31520253C30B3F5800FD5F8205384BF4FF0FF3301937A
S31520253C40FEF72EF804460028D3D1039B019AE918BE
S31520253C50914221D8721E2A4221D197F8B022B3FB50
S31520253C60F6F1012A06FB11334FF0FF3218BF002249
S31520253C70002B18BF0131B5FBF6F0FFF7DBFD88B128
S31520253C802846DDE90221FFF7ADFE04460028B0D1FE
S31520253C90FFF718FF0446ACE742F2D874A9E742F2AB
S31520253CA0DE74A6E742F2DB74A3E7C02A81D15D4DF7
S31520253CB04FF449720021284611F08AFD337903F005
S31520253CC00F03012B09D9022B7FF473AF564B0C20FA
S31520253CD02B600AF027FF554B05E0554B0C202B6012
S31520253CE00AF020FF534B1A682968D2B2531CB0FB21
S31520253CF0F3F0514B68601A68914204BF002283F87D
S31520253D00D42040F2FF13A5F804330223A5F8023365
S31520253D107378C3F3031385F82C307378C3F3030321
S31520253D2085F82D30B379B279C3F3C00385F83830B9
S31520253D30B379C3F3C01385F83930F37903F0030338
S31520253D40022B69D0032B6AD0012B14BF44F620639E
S31520253D5042F2107312F0100F40F6C411C2F38002FE
S31520253D602B6341F2883318BF0B462E486B6385F8A3
S31520253D703A2004F0B5FB044600287FF43AAFF178C3
S31520253D80284801F0070104F0E1FB044600287FF4CA
S31520253D9030AF01A8FFF7CAFE044600287FF429AFD5
S31520253DA002A940F22110FFF787FC044600287FF45C
S31520253DB020AF029B1421214A01FB0323D5F8E022BB
S31520253DC0DA60019A9A603378DA0721D5B278ADF888
S31520253DD01200C2F30101C2F302128DF814008DF8E8
S31520253DE00F10C3F301118DF80D20C3F38002C3F301
S31520253DF0C0038DF80E108DF8110003A909488DF8FA
S31520253E000C208DF8103004F003FE00287FF442AFF5
S31520253E10012385F80833ECE641F288339AE740F604
S31520253E20C41397E7CC2F272000C04140801DCC40C6
S31520253E3000804140001DCC40F0362720B40927209C
S31520253E4013B50E4C94F8083393B1204604F066FB3F
S31520253E5088B901A8FFF76AFE40B9D4F8FC32014695
S31520253E60019A2046B2FBF3F204F0F4FC02B010BD11
S31520253E7042F2DD70FAE742F2E070F7E7CC2F2720F1
S31520253E8013B540F2FF13144CA4F80433022320461D
S31520253E90A4F8023311F072FBD0B9204604F020FB9A
S31520253EA0C0B9694640F22110FFF706FC80B901A862
S31520253EB0FFF73CFE60B9009B1421084A01FB03232A
S31520253EC0D4F8E022DA60019A9A60012384F808332F
S31520253ED002B010BD0023F9E7CC2F2720B4092720CF
S31520253EE0E1B105281AD8DFE800F0030E11191914B7
S31520253EF00B4B93F8082342F2DD73002A08BF184698
S31520253F000860002070470020086070470846FFF7A4
S31520253F1031BE034BD3F8E0320B60F2E7042070471D
S31520253F20CC2F2720034B002083F8DC0083F8D500EF
S31520253F30704700BFF03627202DE9F04105460C466F
S31520253F401646DFF83C800D4F14B90120BDE8F081D7
S31520253F5001232A464146384605F06AFA034650B9D2
S31520253F60074A52F8041BB14205D10433B3F5007F25
S31520253F70F7D1013CE8E70020E8E700BFF036272007
S31520253F80E03727202DE9F74F81460E46904632B950
S31520253F90274B40F2DF11274A27480DF079FE274D7A
S31520253FA095F8D430002B40D0C0F30804470ADFF813
S31520253FB090A0AB461EB9304603B0BDE8F08F95F8E4
S31520253FC0D53033B1D5F8D8309F4202D35A1C9742E3
S31520253FD028D34FF000033A465146584685F8D53022
S31520253FE0012305F025FA0028E6D10123C5F8D87046
S31520253FF085F8D53033190AEB04014046B3F5007F01
S315202540008CBFC4F500723246019211F0D3FB019A7A
S315202540101444B61A9044B4F5007F24BFA4F5007441
S315202540200137C7E7A9EB4324E4E742F2DD70C3E76E
S315202540304C7B2620297C26201C7C2620F0362720F2
S31520254040E037272013B5104C204611F099FAB8B938
S31520254050204605F063FDA8B901A94FF49070FFF716
S315202540602BFB68B9019B1421084A01FB0323D4F8AD
S31520254070CC20DA60D4F8C8209A60012384F8D4307D
S3152025408002B010BD0023F9E7F0362720B4092720F2
S3152025409010B5214C204605F0B3F9B8BBD4F8E0304D
S315202540A0B3F5007F09D0B4F8BE10C3F500721B48BE
S315202540B041F30001184411F08BFB94F8BE20002310
S315202540C00121D4F8E40042F3000284F8DC30FFF71E
S315202540D033FFF0B10123D4F8E42010490E4805F02A
S315202540E045FA90B90123D4F8E4200D490A4805F06C
S315202540F09FF950B94FF400720949084811F04CFB35
S3152025410042F2DF73002818BF184610BD42F2E07030
S31520254110FBE742F2DB70F8E7F0362720E039272047
S31520254120E03727202DE9F74F80460E46174632B928
S31520254130324B4FF40771324A32480DF0A9FD324DE4
S3152025414095F8D430002B55D0C0F308044FEA502BD0
S31520254150DFF8B8904FF0010A0EB9304611E095F8F0
S31520254160DC301BB984B142F2DE700AE0D5F8E430A2
S315202541709B4502D15A1C93422CD3FFF789FF002851
S31520254180F0D003B0BDE8F08FC5E9384B85F8DCA023
S315202541903319394609EB0400B3F5007F8CBFC4F5E6
S315202541A000723246019211F005FB019AD5F8E030CE
S315202541B01444B61A13441744B4F5007FC5F8E030E5
S315202541C016D3FFF765FF0028DBD1A4F500740BF184
S315202541D001030BE0A8EB4324D5F8E0200193A24266
S315202541E0D6D0FFF755FF0028CBD1019B9B46B3E7B9
S315202541F05B46FBE742F2DD70C3E700BF4C7B2620FA
S31520254200357C26201C7C2620F0362720E0392720C1
S31520254210034B93F8DC0008B1FFF73ABF704700BF80
S31520254220F036272070B50F4E05460C4696F8D43025
S3152025423083B1304605F0E4F878B98CB1690A013D99
S3152025424030462C44C1F1010202EB5422BDE87040D0
S3152025425005F02EBA42F2DD7070BD42F2E070FBE722
S315202542602046F9E7F0362720D0B50D4C94F8D430E2
S3152025427083B1204605F0C4F8014670B92046D4E915
S315202542803263A6FB0367720A42EAC752BDE8D040CD
S3152025429005F00EBA42F2DD70D0BD42F2E070FBE7A2
S315202542A0F0362720F7B5054609F026F908B9042062
S315202542B01CE0E81C09F020F90028F8D0EB7803F05B
S315202542C0F002B02A60D1744C94F8D4202646002AD0
S315202542D0EDD0C3F3030703F00F03012BE7D873B9FA
S315202542E02846FDF7A9FC18B184F8E87003B0F0BD7F
S315202542F0AB68C4F8EC30012384F8E830F6E794F867
S31520254300E830002BD3D02B781B07D0D101A96846BE
S31520254310D6F8EC70D4E93225A5FB0223940A44EA83
S315202543208354B4F5800F88BF4FF0FF34FDF7B8FCD2
S315202543300028DBD1019BFA18A2421CD86A1E3A42D4
S315202543401CD196F8BE20B3FBF5F105FB113342F3BC
S315202543500002B7FBF5F0002B18BF0131FFF7ECFD66
S3152025436078B13846DDE90021FFF7DCFE0028BDD1EE
S31520254370FFF74EFFBAE742F2D870B7E742F2DE7072
S31520254380B4E742F2DB70B1E7D02A90D1424CF02235
S315202543900021204611F01CFA2B7803F00F03012B60
S315202543A008D9022B83D13D4B0C2023600AF0BAFB7A
S315202543B03B4B05E03B4B0C2023600AF0B3FB3A4BE5
S315202543C01A682168D2B2531CB0FBF3F0374B6060D4
S315202543D01A68914204BF002283F808236B78C3F319
S315202543E0021384F82C306B78C3F3000384F82D3020
S315202543F0AB78EA78C3F3C00302F0030284F8383099
S31520254400AB78022AC3F3C01384F83930AB783AD077
S31520254410032A3BD0012A14BF44F6206242F21072A9
S3152025442013F0100F40F6C411226341F2883218BFCB
S315202544300A4613F0600F1848626318BFC3F3411369
S315202544406A780CBF01235B00C2F342022364520122
S31520254450E26305F063FBE0B901A94FF49070FFF7FD
S315202544602BF900287FF442AF019B1421104A01FB2A
S315202544700323D4F8CC20DA60D4F8C8209A60012307
S3152025448084F8D43032E741F28832C9E740F6C4129F
S31520254490C6E70023F4E700BFF036272000C04140B9
S315202544A0801DCC4000804140001DCC40CC2F2720AC
S315202544B0B409272010B519B3052821D8DFE800F03F
S315202544C0030E1120201B0F4B93F8D42042F2DD73C7
S315202544D0002A08BF18460860002001E00020086051
S315202544E010BD084BD3E93223A2FB03349A0A42EAAC
S315202544F084520A60F0E7034BD3F8CC300B60EBE708
S315202545000420EDE7F03627200A4B0022D3F8A831E0
S31520254510B0FBF3F0084B1969203310B5914201D130
S31520254520002010BD53F8044B844201D00132F5E713
S315202545300120F6E720802720007C2720074A1369BB
S31520254540FF2B09D8591C0833116142F82300012273
S31520254550034B00205A70704701207047007C272086
S31520254560E03B272010B5094C4FF48062FF212046D9
S3152025457011F02EF9064A01234FF47F71201DC4E937
S3152025458001230FF07FFC2060002010BD20802720EE
S315202545904243464E00280D4A0D4B08BF134610B5FB
S315202545A00C4640F21C4108BF4FF47F7162689A423F
S315202545B00AD1A368012B07D1201D0FF063FC2368A0
S315202545C01B1A5842584110BD0020FCE74243464E4F
S315202545D05442424413B54FF4807001A9FFF76CF875
S315202545E078B9019B1421084A01FB0323074AD2F8EF
S315202545F0A011D960D2E96B14D2F8A82161434A4388
S315202546009A6002B010BD00BFB4092720208027203C
S3152025461001460A4810B490F8E0214AB9084B42F2DF
S3152025462002041A5542F204041A510233C0F8E43121
S3152025463004485DF8044B0DF0E3B900BF2080272000
S31520254640E03B2720208127202DE9F0470D46174ED0
S315202546501446D6F8A01102EB050896F8E021B0FB02
S31520254660F1F74AB9124B42F202015A5442F2040199
S315202546705A500233C6F8E431DFF83890444502D340
S315202546800020BDE8F087D6F8A0312246394648468F
S31520254690AB4228BF2B469A460DF014FA0028F0D1B6
S315202546A05444A5EB0A050137E8E700BF20802720DB
S315202546B0E03B2720208127202DE9F74F4B4B44F23D
S315202546C0100200214A4D9E5844F20802D5F8A841E9
S315202546D09846995444F20C02D5F8A0119A588A4244
S315202546E0D5E96BA907D002F500508A1AFF21083093
S315202546F0184411F06DF8012231463E4811F00BF889
S31520254700074628B142F2DB77384603B0BDE8F08F5D
S31520254710D5F8A011384A06FB01F0FFF795FF0028AA
S31520254720F2D00AFB09F3DFF8CC90DFF8D4A000936A
S31520254730B6FBF4F420460134FFF700FF44F21402B9
S3152025474058F80230013348F80230009B9C4202D3A8
S3152025475042F2D877D8E7D5F8A88104FB08F1084690
S315202547600191FFF7D1FE019930BB4846B6FBF8FBF0
S3152025477008FB1B6B0BF10102A6EB0B0810F0CBFFF8
S315202547800028BFD1ABEB060B01998B440BEB080315
S3152025479046450193D5F8A03114D8174A194603FB67
S315202547A006F0FFF751FF0028AED042F2DB73984280
S315202547B0A8D02046FFF7C2FE104A013413680133DC
S315202547C01360C2E75246414648460CF0E5FF0028CD
S315202547D0EBD1D5F8A011524601984843FFF734FF6F
S315202547E00028E2D108F10108D0E700BFE03B2720C9
S315202547F02080272020812720E85B2720F47B27205F
S31520254800E23B27202DE9F74F0E469146002A7DD0FB
S31520254810444B1A780093002A7AD0434FD7F8A081A3
S315202548203A6CB0FBF8F3934275D344F214023D4912
S3152025483008FB1304DFF800A18D58D7F8A82102FB21
S3152025484005350EB9304651E0DAF80030374AAB4205
S3152025485092F800B023D1BBF1000F20D05368A34294
S315202548604FD1331904F500504946434500F1080038
S31520254870009B8CBFA8EB040BB34618445A465C44D0
S3152025488010F098FF2A4AA045A6EB0B061368D944B3
S315202548909CBFA4EB080401355B441360D1E7D7F808
S315202548A0A811B5FBF1F0BBF1000F03D0B3FBF1F353
S315202548B0984217D00191D7E96B23534383422DD9AB
S315202548C02846FFF721FE019928B11A4A0D44136877
S315202548D001331360B5E7BBF1000F03D14CB145F287
S315202548E0D12003E0FFF7E8FE0028F7D003B0BDE886
S315202548F0F08F0F4B0D4A1C600123CAF80050137008
S31520254900AFE7FFF7D9FE0028F0D19AE70420EDE797
S3152025491042F2DD70EAE745F2E320E7E742F2D87076
S31520254920E4E700BFE03B272020802720E87B2720BF
S31520254930EC7B2720F47B2720F07B2720034A44F293
S315202549400803D05C08B1FFF7B7BE7047E03B2720A8
S315202549502DE9F74F0E469146002A65D0364B1A7813
S315202549600093002A62D0354F44F214023249D7F8F3
S31520254970A0818D58DFF8D4A0D7F8A821AAF1020B5B
S31520254980B0FBF8F308FB130402FB05351EB93046A8
S3152025499003B0BDE8F08FDAF800309BF80000AB4273
S315202549A000D150BBD7F8A821B5FBF2F118B1B3FB3E
S315202549B0F2F3994210D00192D7E96B0343438B42F8
S315202549C037D92846FFF7A0FD019A28B11C49154459
S315202549D00B6801330B60D9E700231A4A29461A4862
S315202549E08BF80030D7F8A0310CF0D6FE0028CFD191
S315202549F00123CAF800508BF800303319A11C4846EC
S31520254A004345009B8CBFA8EB0402324619440192EC
S31520254A1010F0D0FE019A1444B61A9144A0459CBFA5
S31520254A20A4EB08040135B1E70420B1E742F2DD7095
S31520254A30AEE742F2D870ABE7E03B2720208027203F
S31520254A40F47B2720E23B272020812720E45B272093
S31520254A502DE9F74F064601920D464FF400520021C7
S31520254A601548984610F0B4FE002E4FF0000BDFF8BF
S31520254A704CA00CBF4FF480694FF484690E4F019BDF
S31520254A809B4501D1012412E0DAF8A0013A46494690
S31520254A906843FFF75DFF044618B145440BF1010B2A
S31520254AA0EDE739463046FFF775FD0028F5D0204637
S31520254AB003B0BDE8F08F00BFE23B272020802720CA
S31520254AC073B50BF081FD20283ED1204DFFF74AFDF9
S31520254AD005F580700CF024F9044690BB05F5807009
S31520254AE00CF0C8FB044660BB01A968460CF042F8C9
S31520254AF021462046DDE90023FFF7AAFF044600BB11
S31520254B00134E4FF480622846314610F053FE05F5A4
S31520254B1080700CF0AFFB044698B9E9680120DDE9E1
S31520254B200023FFF795FF044658B94FF48462314692
S31520254B30084810F03FFE012306F8023CFFF74AFD00
S31520254B400446204602B070BD0124FAE7208027209E
S31520254B50E23B2720007C27202DE9F04F3D4C85B0D0
S31520254B608046B4F81290B4F810A0B9F1010F85BF8C
S31520254B70D4F8A8310AFB09F70123B7FBF3F30193F0
S31520254B8068B3354E40F21C41E56845F2E22BD4F850
S31520254B90A821301DB5FBF2F70FF074F94FF4846385
S31520254BA030600293002126E0D4F8A0013A464FF43E
S31520254BB080617043FFF7CCFE00283BD14FF48062FD
S31520254BC05946384610F0E8FDA0BB013556444D45DB
S31520254BD0EAD34FF0000B584605B0BDE8F08F0646C0
S31520254BE005461E4FDFF86CB0F1E7C8190391FFF78C
S31520254BF00FFD03990131019B9942F6D100274F4597
S31520254C00E9D2D4F8A001324602996843FFF71CFD64
S31520254C1050B1D4F8A801B5FBF0F0FFF7F9FC5846BA
S31520254C20013755448346EAE7B8F1010F04BF0C4BFB
S31520254C305870F5E74FF47F710A480FF023F90027BE
S31520254C404FF48063034E3D4645F2E12B20600293C7
S31520254C50A8E700BF20802720007C2720E23B2720AD
S31520254C60E03B2720248027202DE9F843244E33783E
S31520254C70002B3BD000293ED0224B441ED3F8A02121
S31520254C800C44D3F8A8519846B0FBF2F7B4FBF2F4BE
S31520254C90B7FBF5F7B4FBF5F4C7F1010214441A6CFA
S31520254CA0B2FBF5F2974228D30125D3E96B2302FBE4
S31520254CB003F944B97378DBB10120BDE8F843FFF742
S31520254CC04BBF013C10E04F45F4D2D8F8A8017843D4
S31520254CD0FFF71AFC40B93846FFF79AFC0546002807
S31520254CE0EFD03846FFF72AFC0137E2E742F2DD7599
S31520254CF02846BDE8F8830D46FAE745F2E325F7E78A
S31520254D00E03B27202080272010B5084C607810B15D
S31520254D100120FFF721FF002344F20802A35442F283
S31520254D200202A35444F21402A35010BDE03B2720CF
S31520254D302DE9F3410446804608F0DEFB08B9042018
S31520254D40EAE004F2FF3008F0D7FB0028F7D0214609
S31520254D500020FFF71FFC70B19E4B002221469E485E
S31520254D601A704FF4806210F025FD9C480CF082FACB
S31520254D70002878D0D0E0E37803F0F002D02A40F05E
S31520254D80B4802679A7793007637814BF06F00F06F5
S31520254D900126390714BF07F00F0701279A076278DE
S31520254DA014BF03F00303012363F301026379012B67
S31520254DB0627038BF0123637123785B0700F0FE807C
S31520254DC0082F00F2FE80834B0022834D1A70FFF7B1
S31520254DD0C9FB05F580700BF0A3FF002840F09C80C9
S31520254DE00623A5F85C0185F8090105F5807085F867
S31520254DF00C312378C3F3020385F852312378C3F384
S31520254E00C00385F820312378C3F30213013385F8AF
S31520254E1053316378C3F30103DB0085F821316378A9
S31520254E20C3F3021385F83031A378C3F3000385F83D
S31520254E305531A378C3F3400385F856310CF01AFA79
S31520254E40002869D194F805C02946D5F8A83106FB4E
S31520254E500CF25200874231D103FB0CF36E825E435E
S31520254E602B82EE606F615C4901200B8A4A8AC968CC
S31520254E70FFF7EEFD002800F09A80594C4FF4846206
S31520254E80FF210125204610F0A3FC564B40F21C415C
S31520254E90201DC4E90135002323610EF0F3FF206090
S31520254EA02846FFF759FEB8BB0020FFF755FE98BBCD
S31520254EB0484B01221A70FFF78DFB2DE020B1B8F85B
S31520254EC00620B8F804402244B8F80A40083108F1EB
S31520254ED00408944278D3B8F804E05C43013003FBF8
S31520254EE00EFE8C63C1F83CE0B4E7B02A6FD1394D6C
S31520254EF029782A4600293FF422AFC3F3030603F077
S31520254F000F03012B3FF61BAF83B92046FCF794FEF2
S31520254F1044F2180318B1EE5402B0BDE8F081A16819
S31520254F2044F21C02A9500122EA549CE744F21803B4
S31520254F30EB5C002B3FF403AF237803F00F03072BFD
S31520254F403FF6FDAE244D083301A9684655F8334072
S31520254F5005EBC303D5F8A061D3F8048044F21C03DE
S31520254F60D758FCF79DFE0028D6D1019B3B44B3FBA1
S31520254F70F6F39845FFF4E3AE06FB0474731E23422D
S31520254F807FF4DDAE012205F58070B4FBF6F110F035
S31520254F90C2FB48B92046DDE90021FFF733FC00286E
S31520254FA0BAD1FFF7CBFCE3E642F2DB70B4E74FF448
S31520254FB084620D490A4810F0FDFB75E745F2E42089
S31520254FC0AAE745F2E520A7E745F2E620A4E745F23C
S31520254FD0E020A1E7E03B27202080272020812720CD
S31520254FE0007C272054424244E23B27202DE9F041EC
S31520254FF0144E154FD6E96B1201FB02F83978E9B91B
S3152025500042F2DD742046BDE8F081D6F8A801684332
S31520255010FFF77AFA38B92846FFF7FAFA044610B187
S315202550202846FFF78BFA01354545EED17B78002BAF
S31520255030E8D00120BDE8F041FFF78EBD00250124EB
S31520255040F2E700BF20802720E03B272000293CD0FF
S3152025505010283AD8DFE800F00913162339273939DD
S3152025506039393939393939392E00194B1A7842F2D5
S31520255070DD73002A08BF18460860002070470020E7
S3152025508008607047134AD2E96B305843D2F8A831C5
S315202550905843D2F8A03143439B0A0B60EDE70D4BCD
S315202550A0D3F8A031F9E70B4AD2F8A801D2F8A031D6
S315202550B04343F2E7074BD3E96B205043D3F8A82186
S315202550C0D3F8A03142435343E7E70420704700BF76
S315202550D0E03B2720208027200020014B9860704721
S315202550E0A80427202DE9F047234B8CB0234E804654
S315202550F093F818748A4693F81994144605AD0FCE5D
S315202551000FC596E8070085E807001022002101A88B
S3152025511010F05EFB4FF48013049344B901223846E0
S3152025512049460BF0A7F900200CB0BDE8F087032CE3
S3152025513001D10022F3E7012C18D1CDF808800CAB3C
S31520255140CDF80CA003EB870401A954F81C0C09F013
S31520255150C5FFB0F5C87FF7D00028E5D03846002210
S3152025516049460BF087F942F6CD10DDE7022C08BF1C
S31520255170CDF80480E3E700BFA8042720AC5A2620D3
S315202551800B461146044A127812B11A4601F04CBE36
S3152025519042F2DD70704700BFA804272030B5134C96
S315202551A0ADF20C4D0023A268EAB1656804F10C0125
S315202551B001922846C4E9013301F052FE80B9019AAD
S315202551C002A9284601F030FE50B9019A02A904F118
S315202551D00C0010F0E1FA42F2DF73002818BF1846BA
S315202551E00DF20C4D30BD1046FAE700BFA804272046
S315202551F02DE9F8431D4C06460D469046237893B354
S31520255200D4F82874B7F5806F28BF4FF480670DB979
S31520255210284626E0D4E9012050EA02031AD1666001
S315202552204219974238BFA7EB000900F10C0028BF89
S31520255230A9462044404503D04A46414610F0BAFAAD
S31520255240A368C8444E44A5EB09054B449F42A36059
S31520255250DDD102E00244B242E2D0FFF79FFF0028CB
S31520255260D5D0BDE8F88342F2DD70FAE7A8042720D9
S315202552700B4B1B7870B505460E4673B101F02EFEF5
S31520255280044640B9314628460EF00FFE42F2DF731A
S31520255290002808BF1C46204670BD42F2DD74FAE779
S315202552A0A80427202DE9F0438FB0054608F024F9D8
S315202552B008B904201EE105F12B0008F01DF9002868
S315202552C0F7D0EB7803F0F002C02A40F0FE80B04CF0
S315202552D02C22002104F5826010F07AFAAD4BAE4AD5
S315202552E0C4F810344FF48033AC49C4F81434AC4B8D
S315202552F0C4F8303440F20563A4F834342B7803F00F
S315202553000F0352F82330A74AC4F828342B781B09D3
S3152025531052F823206B78C4F82C2403F00F0351F878
S31520255320230023466978C4F82404C1F30316090902
S31520255330012919D002292FD00021B0F1807F84F8A8
S3152025534020144FF0600483F8384432D81821B2F55A
S31520255350803F83F821144FF0420183F836141ED35B
S31520255360D82283F8372407E0B0F5803F84F82064D7
S315202553700BD8102283F82124AA781209013A032A68
S3152025538049D8DFE802F02D424446B0F1807F01D886
S315202553901822EFE72022EDE784F82064ECE7B2F522
S315202553A0805F01D12022DCE7B2F5004FE4D15222DD
S315202553B0D7E72020B2F5803F83F8361483F82104D9
S315202553C04FF0120083F831044FF0130083F832048E
S315202553D001D3DC22C5E7B2F5805FCDD12122C0E7F6
S315202553E0012283F81824AA78C2F3030102F00F02BA
S315202553F0022A03D0032A01D0012A0ED183F81914B3
S31520255400EA7812070DD1684A15E00222E9E7032238
S31520255410E7E70422E5E70022E3E7002283F81924BB
S31520255420EEE72A7902F00F02022A4AD0032A4AD029
S31520255430012AE8D15D4AC3F81C24554E4FF00008B1
S315202554405B4D07AC96F8187406F58360D6F81C9440
S3152025545086F800800BF030F8384610F072F838467A
S3152025546054490BF01DF80FCD0FC495E8070084E8A5
S3152025547007001C224146684610F0AAF908236946EA
S315202554804C4A01934C4BCDF80090ADF808808DF809
S315202554900A80B3FBF9F3CDE903330593022306935B
S315202554A00EAB03EB870757F81C0C09F069FDD6F8D8
S315202554B00C1406F5846001F087FCD8B901233370D6
S315202554C018E03E4AB7E73E4AB5E7B02A50D1304CD8
S315202554D02278002A3FF4EDAEC3F3030603F00F032B
S315202554E0012B3FF6E6AE7BB92846FCF7A5FB20B176
S315202554F084F83C640FB0BDE8F083AB68C4F840342B
